{
  "contractName": "OprionTokenCrowdsale",
  "abi": [
    {
      "inputs": [
        {
          "internalType": "uint256",
          "name": "_rate",
          "type": "uint256"
        },
        {
          "internalType": "address payable",
          "name": "_wallet",
          "type": "address"
        },
        {
          "internalType": "contract ERC20",
          "name": "_token",
          "type": "address"
        },
        {
          "internalType": "uint256",
          "name": "_cap",
          "type": "uint256"
        },
        {
          "internalType": "uint256",
          "name": "_openingTime",
          "type": "uint256"
        },
        {
          "internalType": "uint256",
          "name": "_closingTime",
          "type": "uint256"
        },
        {
          "internalType": "uint256",
          "name": "_goal",
          "type": "uint256"
        },
        {
          "internalType": "address",
          "name": "_foundersFund",
          "type": "address"
        },
        {
          "internalType": "address",
          "name": "_foundationFund",
          "type": "address"
        },
        {
          "internalType": "address",
          "name": "_partnersFund",
          "type": "address"
        },
        {
          "internalType": "uint256",
          "name": "_releaseTime",
          "type": "uint256"
        }
      ],
      "payable": false,
      "stateMutability": "nonpayable",
      "type": "constructor"
    },
    {
      "anonymous": false,
      "inputs": [],
      "name": "CrowdsaleFinalized",
      "type": "event"
    },
    {
      "anonymous": false,
      "inputs": [
        {
          "indexed": true,
          "internalType": "address",
          "name": "previousOwner",
          "type": "address"
        },
        {
          "indexed": true,
          "internalType": "address",
          "name": "newOwner",
          "type": "address"
        }
      ],
      "name": "OwnershipTransferred",
      "type": "event"
    },
    {
      "anonymous": false,
      "inputs": [
        {
          "indexed": false,
          "internalType": "uint256",
          "name": "prevClosingTime",
          "type": "uint256"
        },
        {
          "indexed": false,
          "internalType": "uint256",
          "name": "newClosingTime",
          "type": "uint256"
        }
      ],
      "name": "TimedCrowdsaleExtended",
      "type": "event"
    },
    {
      "anonymous": false,
      "inputs": [
        {
          "indexed": true,
          "internalType": "address",
          "name": "purchaser",
          "type": "address"
        },
        {
          "indexed": true,
          "internalType": "address",
          "name": "beneficiary",
          "type": "address"
        },
        {
          "indexed": false,
          "internalType": "uint256",
          "name": "value",
          "type": "uint256"
        },
        {
          "indexed": false,
          "internalType": "uint256",
          "name": "amount",
          "type": "uint256"
        }
      ],
      "name": "TokensPurchased",
      "type": "event"
    },
    {
      "anonymous": false,
      "inputs": [
        {
          "indexed": true,
          "internalType": "address",
          "name": "account",
          "type": "address"
        }
      ],
      "name": "WhitelistAdminAdded",
      "type": "event"
    },
    {
      "anonymous": false,
      "inputs": [
        {
          "indexed": true,
          "internalType": "address",
          "name": "account",
          "type": "address"
        }
      ],
      "name": "WhitelistAdminRemoved",
      "type": "event"
    },
    {
      "anonymous": false,
      "inputs": [
        {
          "indexed": true,
          "internalType": "address",
          "name": "account",
          "type": "address"
        }
      ],
      "name": "WhitelistedAdded",
      "type": "event"
    },
    {
      "anonymous": false,
      "inputs": [
        {
          "indexed": true,
          "internalType": "address",
          "name": "account",
          "type": "address"
        }
      ],
      "name": "WhitelistedRemoved",
      "type": "event"
    },
    {
      "payable": true,
      "stateMutability": "payable",
      "type": "fallback"
    },
    {
      "constant": false,
      "inputs": [
        {
          "internalType": "address",
          "name": "account",
          "type": "address"
        }
      ],
      "name": "addWhitelistAdmin",
      "outputs": [],
      "payable": false,
      "stateMutability": "nonpayable",
      "type": "function"
    },
    {
      "constant": false,
      "inputs": [
        {
          "internalType": "address",
          "name": "account",
          "type": "address"
        }
      ],
      "name": "addWhitelisted",
      "outputs": [],
      "payable": false,
      "stateMutability": "nonpayable",
      "type": "function"
    },
    {
      "constant": false,
      "inputs": [
        {
          "internalType": "address",
          "name": "beneficiary",
          "type": "address"
        }
      ],
      "name": "buyTokens",
      "outputs": [],
      "payable": true,
      "stateMutability": "payable",
      "type": "function"
    },
    {
      "constant": true,
      "inputs": [],
      "name": "cap",
      "outputs": [
        {
          "internalType": "uint256",
          "name": "",
          "type": "uint256"
        }
      ],
      "payable": false,
      "stateMutability": "view",
      "type": "function"
    },
    {
      "constant": true,
      "inputs": [],
      "name": "capReached",
      "outputs": [
        {
          "internalType": "bool",
          "name": "",
          "type": "bool"
        }
      ],
      "payable": false,
      "stateMutability": "view",
      "type": "function"
    },
    {
      "constant": false,
      "inputs": [
        {
          "internalType": "address payable",
          "name": "refundee",
          "type": "address"
        }
      ],
      "name": "claimRefund",
      "outputs": [],
      "payable": false,
      "stateMutability": "nonpayable",
      "type": "function"
    },
    {
      "constant": true,
      "inputs": [],
      "name": "closingTime",
      "outputs": [
        {
          "internalType": "uint256",
          "name": "",
          "type": "uint256"
        }
      ],
      "payable": false,
      "stateMutability": "view",
      "type": "function"
    },
    {
      "constant": true,
      "inputs": [
        {
          "internalType": "address",
          "name": "",
          "type": "address"
        }
      ],
      "name": "contributions",
      "outputs": [
        {
          "internalType": "uint256",
          "name": "",
          "type": "uint256"
        }
      ],
      "payable": false,
      "stateMutability": "view",
      "type": "function"
    },
    {
      "constant": false,
      "inputs": [],
      "name": "finalize",
      "outputs": [],
      "payable": false,
      "stateMutability": "nonpayable",
      "type": "function"
    },
    {
      "constant": true,
      "inputs": [],
      "name": "finalized",
      "outputs": [
        {
          "internalType": "bool",
          "name": "",
          "type": "bool"
        }
      ],
      "payable": false,
      "stateMutability": "view",
      "type": "function"
    },
    {
      "constant": true,
      "inputs": [],
      "name": "foundationFund",
      "outputs": [
        {
          "internalType": "address",
          "name": "",
          "type": "address"
        }
      ],
      "payable": false,
      "stateMutability": "view",
      "type": "function"
    },
    {
      "constant": true,
      "inputs": [],
      "name": "foundationPercentage",
      "outputs": [
        {
          "internalType": "uint256",
          "name": "",
          "type": "uint256"
        }
      ],
      "payable": false,
      "stateMutability": "view",
      "type": "function"
    },
    {
      "constant": true,
      "inputs": [],
      "name": "foundationTimelock",
      "outputs": [
        {
          "internalType": "contract TokenTimelock",
          "name": "",
          "type": "address"
        }
      ],
      "payable": false,
      "stateMutability": "view",
      "type": "function"
    },
    {
      "constant": true,
      "inputs": [],
      "name": "foundersFund",
      "outputs": [
        {
          "internalType": "address",
          "name": "",
          "type": "address"
        }
      ],
      "payable": false,
      "stateMutability": "view",
      "type": "function"
    },
    {
      "constant": true,
      "inputs": [],
      "name": "foundersPercentage",
      "outputs": [
        {
          "internalType": "uint256",
          "name": "",
          "type": "uint256"
        }
      ],
      "payable": false,
      "stateMutability": "view",
      "type": "function"
    },
    {
      "constant": true,
      "inputs": [],
      "name": "foundersTimelock",
      "outputs": [
        {
          "internalType": "contract TokenTimelock",
          "name": "",
          "type": "address"
        }
      ],
      "payable": false,
      "stateMutability": "view",
      "type": "function"
    },
    {
      "constant": true,
      "inputs": [],
      "name": "goal",
      "outputs": [
        {
          "internalType": "uint256",
          "name": "",
          "type": "uint256"
        }
      ],
      "payable": false,
      "stateMutability": "view",
      "type": "function"
    },
    {
      "constant": true,
      "inputs": [],
      "name": "goalReached",
      "outputs": [
        {
          "internalType": "bool",
          "name": "",
          "type": "bool"
        }
      ],
      "payable": false,
      "stateMutability": "view",
      "type": "function"
    },
    {
      "constant": true,
      "inputs": [],
      "name": "hasClosed",
      "outputs": [
        {
          "internalType": "bool",
          "name": "",
          "type": "bool"
        }
      ],
      "payable": false,
      "stateMutability": "view",
      "type": "function"
    },
    {
      "constant": true,
      "inputs": [],
      "name": "investorHardCap",
      "outputs": [
        {
          "internalType": "uint256",
          "name": "",
          "type": "uint256"
        }
      ],
      "payable": false,
      "stateMutability": "view",
      "type": "function"
    },
    {
      "constant": true,
      "inputs": [],
      "name": "investorMinCap",
      "outputs": [
        {
          "internalType": "uint256",
          "name": "",
          "type": "uint256"
        }
      ],
      "payable": false,
      "stateMutability": "view",
      "type": "function"
    },
    {
      "constant": true,
      "inputs": [],
      "name": "isOpen",
      "outputs": [
        {
          "internalType": "bool",
          "name": "",
          "type": "bool"
        }
      ],
      "payable": false,
      "stateMutability": "view",
      "type": "function"
    },
    {
      "constant": true,
      "inputs": [],
      "name": "isOwner",
      "outputs": [
        {
          "internalType": "bool",
          "name": "",
          "type": "bool"
        }
      ],
      "payable": false,
      "stateMutability": "view",
      "type": "function"
    },
    {
      "constant": true,
      "inputs": [
        {
          "internalType": "address",
          "name": "account",
          "type": "address"
        }
      ],
      "name": "isWhitelistAdmin",
      "outputs": [
        {
          "internalType": "bool",
          "name": "",
          "type": "bool"
        }
      ],
      "payable": false,
      "stateMutability": "view",
      "type": "function"
    },
    {
      "constant": true,
      "inputs": [
        {
          "internalType": "address",
          "name": "account",
          "type": "address"
        }
      ],
      "name": "isWhitelisted",
      "outputs": [
        {
          "internalType": "bool",
          "name": "",
          "type": "bool"
        }
      ],
      "payable": false,
      "stateMutability": "view",
      "type": "function"
    },
    {
      "constant": true,
      "inputs": [],
      "name": "openingTime",
      "outputs": [
        {
          "internalType": "uint256",
          "name": "",
          "type": "uint256"
        }
      ],
      "payable": false,
      "stateMutability": "view",
      "type": "function"
    },
    {
      "constant": true,
      "inputs": [],
      "name": "owner",
      "outputs": [
        {
          "internalType": "address",
          "name": "",
          "type": "address"
        }
      ],
      "payable": false,
      "stateMutability": "view",
      "type": "function"
    },
    {
      "constant": true,
      "inputs": [],
      "name": "partnersFund",
      "outputs": [
        {
          "internalType": "address",
          "name": "",
          "type": "address"
        }
      ],
      "payable": false,
      "stateMutability": "view",
      "type": "function"
    },
    {
      "constant": true,
      "inputs": [],
      "name": "partnersPercentage",
      "outputs": [
        {
          "internalType": "uint256",
          "name": "",
          "type": "uint256"
        }
      ],
      "payable": false,
      "stateMutability": "view",
      "type": "function"
    },
    {
      "constant": true,
      "inputs": [],
      "name": "partnersTimelock",
      "outputs": [
        {
          "internalType": "contract TokenTimelock",
          "name": "",
          "type": "address"
        }
      ],
      "payable": false,
      "stateMutability": "view",
      "type": "function"
    },
    {
      "constant": true,
      "inputs": [],
      "name": "releaseTime",
      "outputs": [
        {
          "internalType": "uint256",
          "name": "",
          "type": "uint256"
        }
      ],
      "payable": false,
      "stateMutability": "view",
      "type": "function"
    },
    {
      "constant": false,
      "inputs": [
        {
          "internalType": "address",
          "name": "account",
          "type": "address"
        }
      ],
      "name": "removeWhitelisted",
      "outputs": [],
      "payable": false,
      "stateMutability": "nonpayable",
      "type": "function"
    },
    {
      "constant": false,
      "inputs": [],
      "name": "renounceOwnership",
      "outputs": [],
      "payable": false,
      "stateMutability": "nonpayable",
      "type": "function"
    },
    {
      "constant": false,
      "inputs": [],
      "name": "renounceWhitelistAdmin",
      "outputs": [],
      "payable": false,
      "stateMutability": "nonpayable",
      "type": "function"
    },
    {
      "constant": false,
      "inputs": [],
      "name": "renounceWhitelisted",
      "outputs": [],
      "payable": false,
      "stateMutability": "nonpayable",
      "type": "function"
    },
    {
      "constant": true,
      "inputs": [],
      "name": "stage",
      "outputs": [
        {
          "internalType": "enum OprionTokenCrowdsale.CrowdsaleStage",
          "name": "",
          "type": "uint8"
        }
      ],
      "payable": false,
      "stateMutability": "view",
      "type": "function"
    },
    {
      "constant": true,
      "inputs": [],
      "name": "token",
      "outputs": [
        {
          "internalType": "contract IERC20",
          "name": "",
          "type": "address"
        }
      ],
      "payable": false,
      "stateMutability": "view",
      "type": "function"
    },
    {
      "constant": true,
      "inputs": [],
      "name": "tokenSalesPercentage",
      "outputs": [
        {
          "internalType": "uint256",
          "name": "",
          "type": "uint256"
        }
      ],
      "payable": false,
      "stateMutability": "view",
      "type": "function"
    },
    {
      "constant": false,
      "inputs": [
        {
          "internalType": "address",
          "name": "newOwner",
          "type": "address"
        }
      ],
      "name": "transferOwnership",
      "outputs": [],
      "payable": false,
      "stateMutability": "nonpayable",
      "type": "function"
    },
    {
      "constant": true,
      "inputs": [],
      "name": "wallet",
      "outputs": [
        {
          "internalType": "address payable",
          "name": "",
          "type": "address"
        }
      ],
      "payable": false,
      "stateMutability": "view",
      "type": "function"
    },
    {
      "constant": true,
      "inputs": [],
      "name": "weiRaised",
      "outputs": [
        {
          "internalType": "uint256",
          "name": "",
          "type": "uint256"
        }
      ],
      "payable": false,
      "stateMutability": "view",
      "type": "function"
    },
    {
      "constant": true,
      "inputs": [
        {
          "internalType": "address",
          "name": "beneficiary",
          "type": "address"
        }
      ],
      "name": "getUserContribution",
      "outputs": [
        {
          "internalType": "uint256",
          "name": "",
          "type": "uint256"
        }
      ],
      "payable": false,
      "stateMutability": "view",
      "type": "function"
    },
    {
      "constant": true,
      "inputs": [],
      "name": "viewEscrowFunds",
      "outputs": [
        {
          "internalType": "contract RefundEscrow",
          "name": "",
          "type": "address"
        }
      ],
      "payable": false,
      "stateMutability": "view",
      "type": "function"
    },
    {
      "constant": true,
      "inputs": [],
      "name": "weiRaisedX",
      "outputs": [
        {
          "internalType": "uint256",
          "name": "",
          "type": "uint256"
        }
      ],
      "payable": false,
      "stateMutability": "view",
      "type": "function"
    },
    {
      "constant": true,
      "inputs": [],
      "name": "rate",
      "outputs": [
        {
          "internalType": "uint256",
          "name": "",
          "type": "uint256"
        }
      ],
      "payable": false,
      "stateMutability": "view",
      "type": "function"
    },
    {
      "constant": false,
      "inputs": [
        {
          "internalType": "uint256",
          "name": "_stage",
          "type": "uint256"
        }
      ],
      "name": "setCrowdsaleStage",
      "outputs": [],
      "payable": false,
      "stateMutability": "nonpayable",
      "type": "function"
    }
  ],
  "bytecode": "0x608060405266071afd498d0000600d556802b5e3af16b1880000600e556000601060006101000a81548160ff021916908360018111156200003c57fe5b02179055506101f460115560fa6012556046601455600a601555600a601655600a6017553480156200006d57600080fd5b5060405162005eb938038062005eb983398181016040526101608110156200009457600080fd5b8101908080519060200190929190805190602001909291908051906020019092919080519060200190929190805190602001909291908051906020019092919080519060200190929190805190602001909291908051906020019092919080519060200190929190805190602001909291905050508487878a8e8e8e62000130620001246200078f60201b60201c565b6200079760201b60201c565b6001600260006101000a81548160ff02191690831515021790555060008311620001c2576040517f08c379a00000000000000000000000000000000000000000000000000000000081526004018080602001828103825260148152602001807f43726f776473616c653a2072617465206973203000000000000000000000000081525060200191505060405180910390fd5b600073ffffffffffffffffffffffffffffffffffffffff168273ffffffffffffffffffffffffffffffffffffffff1614156200024a576040517f08c379a000000000000000000000000000000000000000000000000000000000815260040180806020018281038252602581526020018062005e946025913960400191505060405180910390fd5b600073ffffffffffffffffffffffffffffffffffffffff168173ffffffffffffffffffffffffffffffffffffffff161415620002d2576040517f08c379a000000000000000000000000000000000000000000000000000000000815260040180806020018281038252602481526020018062005e4e6024913960400191505060405180910390fd5b8260048190555081600360006101000a81548173ffffffffffffffffffffffffffffffffffffffff021916908373ffffffffffffffffffffffffffffffffffffffff16021790555080600260016101000a81548173ffffffffffffffffffffffffffffffffffffffff021916908373ffffffffffffffffffffffffffffffffffffffff16021790555050505060008111620003d5576040517f08c379a00000000000000000000000000000000000000000000000000000000081526004018080602001828103825260198152602001807f43617070656443726f776473616c653a2063617020697320300000000000000081525060200191505060405180910390fd5b80600681905550504282101562000438576040517f08c379a000000000000000000000000000000000000000000000000000000000815260040180806020018281038252603381526020018062005de46033913960400191505060405180910390fd5b81811162000492576040517f08c379a000000000000000000000000000000000000000000000000000000000815260040180806020018281038252603781526020018062005e176037913960400191505060405180910390fd5b816007819055508060088190555050506000600960006101000a81548160ff0219169083151502179055506000811162000534576040517f08c379a000000000000000000000000000000000000000000000000000000000815260040180806020018281038252601e8152602001807f526566756e6461626c6543726f776473616c653a20676f616c2069732030000081525060200191505060405180910390fd5b62000544620007f860201b60201c565b6040516200055290620009e6565b808273ffffffffffffffffffffffffffffffffffffffff1673ffffffffffffffffffffffffffffffffffffffff168152602001915050604051809103906000f080158015620005a5573d6000803e3d6000fd5b50600b60006101000a81548173ffffffffffffffffffffffffffffffffffffffff021916908373ffffffffffffffffffffffffffffffffffffffff16021790555080600a81905550506000620006006200078f60201b60201c565b905080600c60006101000a81548173ffffffffffffffffffffffffffffffffffffffff021916908373ffffffffffffffffffffffffffffffffffffffff1602179055508073ffffffffffffffffffffffffffffffffffffffff16600073ffffffffffffffffffffffffffffffffffffffff167f8be0079c531659141344cd1fd0a4f28419497f9722a3daafe3b4186f6b6457e060405160405180910390a35087851115620006ad57600080fd5b8a60138190555083601860006101000a81548173ffffffffffffffffffffffffffffffffffffffff021916908373ffffffffffffffffffffffffffffffffffffffff16021790555082601960006101000a81548173ffffffffffffffffffffffffffffffffffffffff021916908373ffffffffffffffffffffffffffffffffffffffff16021790555081601a60006101000a81548173ffffffffffffffffffffffffffffffffffffffff021916908373ffffffffffffffffffffffffffffffffffffffff16021790555080601e819055505050505050505050505050620009f4565b600033905090565b620007b28160006200082260201b62002cb81790919060201c565b8073ffffffffffffffffffffffffffffffffffffffff167f22380c05984257a1cb900161c713dd71d39e74820f1aea43bd3f1bdd2096129960405160405180910390a250565b6000600360009054906101000a900473ffffffffffffffffffffffffffffffffffffffff16905090565b6200083482826200090660201b60201c565b15620008a8576040517f08c379a000000000000000000000000000000000000000000000000000000000815260040180806020018281038252601f8152602001807f526f6c65733a206163636f756e7420616c72656164792068617320726f6c650081525060200191505060405180910390fd5b60018260000160008373ffffffffffffffffffffffffffffffffffffffff1673ffffffffffffffffffffffffffffffffffffffff16815260200190815260200160002060006101000a81548160ff0219169083151502179055505050565b60008073ffffffffffffffffffffffffffffffffffffffff168273ffffffffffffffffffffffffffffffffffffffff1614156200098f576040517f08c379a000000000000000000000000000000000000000000000000000000000815260040180806020018281038252602281526020018062005e726022913960400191505060405180910390fd5b8260000160008373ffffffffffffffffffffffffffffffffffffffff1673ffffffffffffffffffffffffffffffffffffffff16815260200190815260200160002060009054906101000a900460ff16905092915050565b61163280620047b283390190565b613dae8062000a046000396000f3fe608060405260043610620002ba5760003560e01c80638f32d59b116200016f578063bb8b2b4711620000d3578063ec0de26e1162000085578063ec0de26e1462000cd8578063ec8ac4d81462000d32578063ed5db8741462000d79578063f2fde38b1462000da7578063f45b9bed1462000dfc578063fc0c546a1462000e2a57620002ba565b8063bb8b2b471462000b3b578063beacec511462000ba4578063bffa55d51462000bd2578063c040e6b81462000c27578063c440008e1462000c64578063d6cd94731462000cbe57620002ba565b8063b25d7f54116200012d578063b25d7f5414620009b8578063b3f05b9714620009e6578063b63e53e01462000a18578063b7a8807c1462000a72578063b91d40011462000aa0578063bb5f747b1462000ace57620002ba565b80638f32d59b1462000839578063926f0c7b146200086b578063a3a3382b14620008c5578063a997f82f146200091f578063b1ba8bc8146200095e57620002ba565b80634b6753bc116200022357806364ceed9911620001d557806364ceed9914620006b6578063715018a614620007105780637362d9c8146200072a5780637d3d6522146200077f578063864329e314620007b15780638da5cb5b14620007df57620002ba565b80634b6753bc146200059a5780634bb278f314620005c85780634c5a628c14620005e25780634f93594514620005fc578063521eb273146200062e57806353c08ea2146200068857620002ba565b8063355274ea116200027d578063355274ea14620004085780633af32abf14620004365780634019388314620004a35780634042b66f14620004d157806342e94c9014620004ff57806347535d7b146200056857620002ba565b806310154bad14620002d05780631515bc2b1462000325578063191764591462000357578063291d954914620003855780632c4e722e14620003da575b620002ce620002c862000e84565b62000e8c565b005b348015620002dd57600080fd5b506200032360048036036020811015620002f657600080fd5b81019080803573ffffffffffffffffffffffffffffffffffffffff1690602001909291905050506200102b565b005b3480156200033257600080fd5b506200033d620010a4565b604051808215151515815260200191505060405180910390f35b3480156200036457600080fd5b506200036f620010b0565b6040518082815260200191505060405180910390f35b3480156200039257600080fd5b50620003d860048036036020811015620003ab57600080fd5b81019080803573ffffffffffffffffffffffffffffffffffffffff169060200190929190505050620010b6565b005b348015620003e757600080fd5b50620003f26200112f565b6040518082815260200191505060405180910390f35b3480156200041557600080fd5b506200042062001139565b6040518082815260200191505060405180910390f35b3480156200044357600080fd5b5062000489600480360360208110156200045c57600080fd5b81019080803573ffffffffffffffffffffffffffffffffffffffff16906020019092919050505062001143565b604051808215151515815260200191505060405180910390f35b348015620004b057600080fd5b50620004bb62001162565b6040518082815260200191505060405180910390f35b348015620004de57600080fd5b50620004e96200116c565b6040518082815260200191505060405180910390f35b3480156200050c57600080fd5b5062000552600480360360208110156200052557600080fd5b81019080803573ffffffffffffffffffffffffffffffffffffffff16906020019092919050505062001176565b6040518082815260200191505060405180910390f35b3480156200057557600080fd5b50620005806200118e565b604051808215151515815260200191505060405180910390f35b348015620005a757600080fd5b50620005b2620011aa565b6040518082815260200191505060405180910390f35b348015620005d557600080fd5b50620005e0620011b4565b005b348015620005ef57600080fd5b50620005fa620012ec565b005b3480156200060957600080fd5b506200061462001302565b604051808215151515815260200191505060405180910390f35b3480156200063b57600080fd5b506200064662001318565b604051808273ffffffffffffffffffffffffffffffffffffffff1673ffffffffffffffffffffffffffffffffffffffff16815260200191505060405180910390f35b3480156200069557600080fd5b50620006a062001342565b6040518082815260200191505060405180910390f35b348015620006c357600080fd5b50620006ce62001348565b604051808273ffffffffffffffffffffffffffffffffffffffff1673ffffffffffffffffffffffffffffffffffffffff16815260200191505060405180910390f35b3480156200071d57600080fd5b50620007286200136e565b005b3480156200073757600080fd5b506200077d600480360360208110156200075057600080fd5b81019080803573ffffffffffffffffffffffffffffffffffffffff169060200190929190505050620014ac565b005b3480156200078c57600080fd5b506200079762001525565b604051808215151515815260200191505060405180910390f35b348015620007be57600080fd5b50620007c96200153b565b6040518082815260200191505060405180910390f35b348015620007ec57600080fd5b50620007f762001541565b604051808273ffffffffffffffffffffffffffffffffffffffff1673ffffffffffffffffffffffffffffffffffffffff16815260200191505060405180910390f35b3480156200084657600080fd5b50620008516200156b565b604051808215151515815260200191505060405180910390f35b3480156200087857600080fd5b5062000883620015cc565b604051808273ffffffffffffffffffffffffffffffffffffffff1673ffffffffffffffffffffffffffffffffffffffff16815260200191505060405180910390f35b348015620008d257600080fd5b50620008dd620015f2565b604051808273ffffffffffffffffffffffffffffffffffffffff1673ffffffffffffffffffffffffffffffffffffffff16815260200191505060405180910390f35b3480156200092c57600080fd5b506200095c600480360360208110156200094557600080fd5b810190808035906020019092919050505062001618565b005b3480156200096b57600080fd5b506200097662001790565b604051808273ffffffffffffffffffffffffffffffffffffffff1673ffffffffffffffffffffffffffffffffffffffff16815260200191505060405180910390f35b348015620009c557600080fd5b50620009d0620017a1565b6040518082815260200191505060405180910390f35b348015620009f357600080fd5b50620009fe620017a7565b604051808215151515815260200191505060405180910390f35b34801562000a2557600080fd5b5062000a30620017be565b604051808273ffffffffffffffffffffffffffffffffffffffff1673ffffffffffffffffffffffffffffffffffffffff16815260200191505060405180910390f35b34801562000a7f57600080fd5b5062000a8a620017e4565b6040518082815260200191505060405180910390f35b34801562000aad57600080fd5b5062000ab8620017ee565b6040518082815260200191505060405180910390f35b34801562000adb57600080fd5b5062000b216004803603602081101562000af457600080fd5b81019080803573ffffffffffffffffffffffffffffffffffffffff169060200190929190505050620017f4565b604051808215151515815260200191505060405180910390f35b34801562000b4857600080fd5b5062000b8e6004803603602081101562000b6157600080fd5b81019080803573ffffffffffffffffffffffffffffffffffffffff16906020019092919050505062001813565b6040518082815260200191505060405180910390f35b34801562000bb157600080fd5b5062000bbc6200185c565b6040518082815260200191505060405180910390f35b34801562000bdf57600080fd5b5062000c256004803603602081101562000bf857600080fd5b81019080803573ffffffffffffffffffffffffffffffffffffffff1690602001909291905050506200186d565b005b34801562000c3457600080fd5b5062000c3f620019ee565b6040518082600181111562000c5057fe5b60ff16815260200191505060405180910390f35b34801562000c7157600080fd5b5062000c7c62001a01565b604051808273ffffffffffffffffffffffffffffffffffffffff1673ffffffffffffffffffffffffffffffffffffffff16815260200191505060405180910390f35b34801562000ccb57600080fd5b5062000cd662001a27565b005b34801562000ce557600080fd5b5062000cf062001a3d565b604051808273ffffffffffffffffffffffffffffffffffffffff1673ffffffffffffffffffffffffffffffffffffffff16815260200191505060405180910390f35b62000d776004803603602081101562000d4a57600080fd5b81019080803573ffffffffffffffffffffffffffffffffffffffff16906020019092919050505062000e8c565b005b34801562000d8657600080fd5b5062000d9162001a63565b6040518082815260200191505060405180910390f35b34801562000db457600080fd5b5062000dfa6004803603602081101562000dcd57600080fd5b81019080803573ffffffffffffffffffffffffffffffffffffffff16906020019092919050505062001a69565b005b34801562000e0957600080fd5b5062000e1462001a77565b6040518082815260200191505060405180910390f35b34801562000e3757600080fd5b5062000e4262001a7d565b604051808273ffffffffffffffffffffffffffffffffffffffff1673ffffffffffffffffffffffffffffffffffffffff16815260200191505060405180910390f35b600033905090565b600260009054906101000a900460ff1662000f0f576040517f08c379a000000000000000000000000000000000000000000000000000000000815260040180806020018281038252601f8152602001807f5265656e7472616e637947756172643a207265656e7472616e742063616c6c0081525060200191505060405180910390fd5b6000600260006101000a81548160ff021916908315150217905550600034905062000f3b828262001aa7565b600062000f488262001b19565b905062000f618260055462001b3990919063ffffffff16565b60058190555062000f73838262001bc2565b8273ffffffffffffffffffffffffffffffffffffffff1662000f9462000e84565b73ffffffffffffffffffffffffffffffffffffffff167f6faf93231a456e552dbc9961f58d9713ee4f2e69d15f1975b050ef0911053a7b8484604051808381526020018281526020019250505060405180910390a362000ff5838362001bd2565b62000fff62001ca3565b6200100b838362001d69565b50506001600260006101000a81548160ff02191690831515021790555050565b6200103f6200103962000e84565b620017f4565b62001096576040517f08c379a000000000000000000000000000000000000000000000000000000000815260040180806020018281038252604081526020018062003ca66040913960400191505060405180910390fd5b620010a18162001d6d565b50565b60006008544211905090565b60145481565b620010ca620010c462000e84565b620017f4565b62001121576040517f08c379a000000000000000000000000000000000000000000000000000000000815260040180806020018281038252604081526020018062003ca66040913960400191505060405180910390fd5b6200112c8162001dc9565b50565b6000601354905090565b6000600654905090565b60006200115b82600162001e2590919063ffffffff16565b9050919050565b6000600a54905090565b6000600554905090565b600f6020528060005260406000206000915090505481565b60006007544210158015620011a557506008544211155b905090565b6000600854905090565b600960009054906101000a900460ff16156200121c576040517f08c379a000000000000000000000000000000000000000000000000000000000815260040180806020018281038252602781526020018062003ce66027913960400191505060405180910390fd5b62001226620010a4565b62001299576040517f08c379a00000000000000000000000000000000000000000000000000000000081526004018080602001828103825260208152602001807f46696e616c697a61626c6543726f776473616c653a206e6f7420636c6f73656481525060200191505060405180910390fd5b6001600960006101000a81548160ff021916908315150217905550620012be62001f05565b7f9270cc390c096600a1c17c44345a1ba689fafd99d97487b10cfccf86cf73183660405160405180910390a1565b62001300620012fa62000e84565b62002794565b565b6000600654620013116200116c565b1015905090565b6000600360009054906101000a900473ffffffffffffffffffffffffffffffffffffffff16905090565b60155481565b601b60009054906101000a900473ffffffffffffffffffffffffffffffffffffffff1681565b620013786200156b565b620013eb576040517f08c379a00000000000000000000000000000000000000000000000000000000081526004018080602001828103825260208152602001807f4f776e61626c653a2063616c6c6572206973206e6f7420746865206f776e657281525060200191505060405180910390fd5b600073ffffffffffffffffffffffffffffffffffffffff16600c60009054906101000a900473ffffffffffffffffffffffffffffffffffffffff1673ffffffffffffffffffffffffffffffffffffffff167f8be0079c531659141344cd1fd0a4f28419497f9722a3daafe3b4186f6b6457e060405160405180910390a36000600c60006101000a81548173ffffffffffffffffffffffffffffffffffffffff021916908373ffffffffffffffffffffffffffffffffffffffff160217905550565b620014c0620014ba62000e84565b620017f4565b62001517576040517f08c379a000000000000000000000000000000000000000000000000000000000815260040180806020018281038252604081526020018062003ca66040913960400191505060405180910390fd5b6200152281620027f0565b50565b6000600a54620015346200116c565b1015905090565b60165481565b6000600c60009054906101000a900473ffffffffffffffffffffffffffffffffffffffff16905090565b6000600c60009054906101000a900473ffffffffffffffffffffffffffffffffffffffff1673ffffffffffffffffffffffffffffffffffffffff16620015b062000e84565b73ffffffffffffffffffffffffffffffffffffffff1614905090565b601a60009054906101000a900473ffffffffffffffffffffffffffffffffffffffff1681565b601960009054906101000a900473ffffffffffffffffffffffffffffffffffffffff1681565b620016226200156b565b62001695576040517f08c379a00000000000000000000000000000000000000000000000000000000081526004018080602001828103825260208152602001807f4f776e61626c653a2063616c6c6572206973206e6f7420746865206f776e657281525060200191505060405180910390fd5b8060006001811115620016a457fe5b1415620016d6576000601060006101000a81548160ff02191690836001811115620016cb57fe5b021790555062001712565b80600180811115620016e457fe5b141562001711576001601060006101000a81548160ff021916908360018111156200170b57fe5b02179055505b5b600060018111156200172057fe5b601060009054906101000a900460ff1660018111156200173c57fe5b141562001752576011546013819055506200178d565b6001808111156200175f57fe5b601060009054906101000a900460ff1660018111156200177b57fe5b14156200178c576012546013819055505b5b50565b60006200179c62001318565b905090565b600d5481565b6000600960009054906101000a900460ff16905090565b601d60009054906101000a900473ffffffffffffffffffffffffffffffffffffffff1681565b6000600754905090565b601e5481565b60006200180c82600062001e2590919063ffffffff16565b9050919050565b6000600f60008373ffffffffffffffffffffffffffffffffffffffff1673ffffffffffffffffffffffffffffffffffffffff168152602001908152602001600020549050919050565b6000620018686200116c565b905090565b62001877620017a7565b620018ce576040517f08c379a000000000000000000000000000000000000000000000000000000000815260040180806020018281038252602281526020018062003d586022913960400191505060405180910390fd5b620018d862001525565b1562001930576040517f08c379a000000000000000000000000000000000000000000000000000000000815260040180806020018281038252602181526020018062003d0d6021913960400191505060405180910390fd5b600b60009054906101000a900473ffffffffffffffffffffffffffffffffffffffff1673ffffffffffffffffffffffffffffffffffffffff166351cff8d9826040518263ffffffff1660e01b8152600401808273ffffffffffffffffffffffffffffffffffffffff1673ffffffffffffffffffffffffffffffffffffffff168152602001915050600060405180830381600087803b158015620019d257600080fd5b505af1158015620019e7573d6000803e3d6000fd5b5050505050565b601060009054906101000a900460ff1681565b601860009054906101000a900473ffffffffffffffffffffffffffffffffffffffff1681565b62001a3b62001a3562000e84565b62001dc9565b565b601c60009054906101000a900473ffffffffffffffffffffffffffffffffffffffff1681565b600e5481565b62001a74816200284c565b50565b60175481565b6000600260019054906101000a900473ffffffffffffffffffffffffffffffffffffffff16905090565b62001ab28262001143565b62001b09576040517f08c379a000000000000000000000000000000000000000000000000000000000815260040180806020018281038252604181526020018062003bdb6041913960600191505060405180910390fd5b62001b15828262002994565b5050565b600062001b326013548362002a2190919063ffffffff16565b9050919050565b60008082840190508381101562001bb8576040517f08c379a000000000000000000000000000000000000000000000000000000000815260040180806020018281038252601b8152602001807f536166654d6174683a206164646974696f6e206f766572666c6f77000000000081525060200191505060405180910390fd5b8091505092915050565b62001bce828262002aac565b5050565b62001bde828262001aa7565b6000600f60008473ffffffffffffffffffffffffffffffffffffffff1673ffffffffffffffffffffffffffffffffffffffff168152602001908152602001600020549050600062001c39838362001b3990919063ffffffff16565b9050600d548111801562001c4f5750600e548111155b62001c5957600080fd5b80600f60008673ffffffffffffffffffffffffffffffffffffffff1673ffffffffffffffffffffffffffffffffffffffff1681526020019081526020016000208190555050505050565b6000600181111562001cb157fe5b601060009054906101000a900460ff16600181111562001ccd57fe5b141562001d2b5762001cde62001318565b73ffffffffffffffffffffffffffffffffffffffff166108fc349081150290604051600060405180830381858888f1935050505015801562001d24573d6000803e3d6000fd5b5062001d67565b60018081111562001d3857fe5b601060009054906101000a900460ff16600181111562001d5457fe5b141562001d665762001d6562002bf1565b5b5b565b5050565b62001d8381600162002cb890919063ffffffff16565b8073ffffffffffffffffffffffffffffffffffffffff167fee1504a83b6d4a361f4c1dc78ab59bfa30d6a3b6612c403e86bb01ef2984295f60405160405180910390a250565b62001ddf81600162002d9690919063ffffffff16565b8073ffffffffffffffffffffffffffffffffffffffff167f270d9b30cf5b0793bbfd54c9d5b94aeb49462b8148399000265144a8722da6b660405160405180910390a250565b60008073ffffffffffffffffffffffffffffffffffffffff168273ffffffffffffffffffffffffffffffffffffffff16141562001eae576040517f08c379a000000000000000000000000000000000000000000000000000000000815260040180806020018281038252602281526020018062003c846022913960400191505060405180910390fd5b8260000160008373ffffffffffffffffffffffffffffffffffffffff1673ffffffffffffffffffffffffffffffffffffffff16815260200190815260200160002060009054906101000a900460ff16905092915050565b62001f0f62001525565b156200278857600062001f2162001a7d565b9050600081905060008173ffffffffffffffffffffffffffffffffffffffff166318160ddd6040518163ffffffff1660e01b815260040160206040518083038186803b15801562001f7157600080fd5b505afa15801562001f86573d6000803e3d6000fd5b505050506040513d602081101562001f9d57600080fd5b81019080805190602001909291905050509050600062001fbc62001a7d565b9050600062001fec606462001fdd6014548662002e5790919063ffffffff16565b62002a2190919063ffffffff16565b905081601860009054906101000a900473ffffffffffffffffffffffffffffffffffffffff16601e546040516200202390620032c9565b808473ffffffffffffffffffffffffffffffffffffffff1673ffffffffffffffffffffffffffffffffffffffff1681526020018373ffffffffffffffffffffffffffffffffffffffff1673ffffffffffffffffffffffffffffffffffffffff1681526020018281526020019350505050604051809103906000f080158015620020b0573d6000803e3d6000fd5b50601b60006101000a81548173ffffffffffffffffffffffffffffffffffffffff021916908373ffffffffffffffffffffffffffffffffffffffff16021790555081601960009054906101000a900473ffffffffffffffffffffffffffffffffffffffff16601e546040516200212690620032c9565b808473ffffffffffffffffffffffffffffffffffffffff1673ffffffffffffffffffffffffffffffffffffffff1681526020018373ffffffffffffffffffffffffffffffffffffffff1673ffffffffffffffffffffffffffffffffffffffff1681526020018281526020019350505050604051809103906000f080158015620021b3573d6000803e3d6000fd5b50601c60006101000a81548173ffffffffffffffffffffffffffffffffffffffff021916908373ffffffffffffffffffffffffffffffffffffffff16021790555081601a60009054906101000a900473ffffffffffffffffffffffffffffffffffffffff16601e546040516200222990620032c9565b808473ffffffffffffffffffffffffffffffffffffffff1673ffffffffffffffffffffffffffffffffffffffff1681526020018373ffffffffffffffffffffffffffffffffffffffff1673ffffffffffffffffffffffffffffffffffffffff1681526020018281526020019350505050604051809103906000f080158015620022b6573d6000803e3d6000fd5b50601d60006101000a81548173ffffffffffffffffffffffffffffffffffffffff021916908373ffffffffffffffffffffffffffffffffffffffff1602179055508373ffffffffffffffffffffffffffffffffffffffff166340c10f19601b60009054906101000a900473ffffffffffffffffffffffffffffffffffffffff166200234d6015548562002e5790919063ffffffff16565b6040518363ffffffff1660e01b8152600401808373ffffffffffffffffffffffffffffffffffffffff1673ffffffffffffffffffffffffffffffffffffffff16815260200182815260200192505050602060405180830381600087803b158015620023b757600080fd5b505af1158015620023cc573d6000803e3d6000fd5b505050506040513d6020811015620023e357600080fd5b8101908080519060200190929190505050508373ffffffffffffffffffffffffffffffffffffffff166340c10f19601c60009054906101000a900473ffffffffffffffffffffffffffffffffffffffff166200244b6015548562002e5790919063ffffffff16565b6040518363ffffffff1660e01b8152600401808373ffffffffffffffffffffffffffffffffffffffff1673ffffffffffffffffffffffffffffffffffffffff16815260200182815260200192505050602060405180830381600087803b158015620024b557600080fd5b505af1158015620024ca573d6000803e3d6000fd5b505050506040513d6020811015620024e157600080fd5b8101908080519060200190929190505050508373ffffffffffffffffffffffffffffffffffffffff166340c10f19601d60009054906101000a900473ffffffffffffffffffffffffffffffffffffffff16620025496015548562002e5790919063ffffffff16565b6040518363ffffffff1660e01b8152600401808373ffffffffffffffffffffffffffffffffffffffff1673ffffffffffffffffffffffffffffffffffffffff16815260200182815260200192505050602060405180830381600087803b158015620025b357600080fd5b505af1158015620025c8573d6000803e3d6000fd5b505050506040513d6020811015620025df57600080fd5b8101908080519060200190929190505050508373ffffffffffffffffffffffffffffffffffffffff16637d64bcb46040518163ffffffff1660e01b8152600401602060405180830381600087803b1580156200263a57600080fd5b505af11580156200264f573d6000803e3d6000fd5b505050506040513d60208110156200266657600080fd5b81019080805190602001909291905050505060008590508073ffffffffffffffffffffffffffffffffffffffff16633f4ba83a6040518163ffffffff1660e01b8152600401600060405180830381600087803b158015620026c657600080fd5b505af1158015620026db573d6000803e3d6000fd5b505050503073ffffffffffffffffffffffffffffffffffffffff1663f2fde38b6200270562001318565b6040518263ffffffff1660e01b8152600401808273ffffffffffffffffffffffffffffffffffffffff1673ffffffffffffffffffffffffffffffffffffffff168152602001915050600060405180830381600087803b1580156200276857600080fd5b505af11580156200277d573d6000803e3d6000fd5b505050505050505050505b6200279262002ea3565b565b620027aa81600062002d9690919063ffffffff16565b8073ffffffffffffffffffffffffffffffffffffffff167f0a8eb35e5ca14b3d6f28e4abf2f128dbab231a58b56e89beb5d636115001e16560405160405180910390a250565b6200280681600062002cb890919063ffffffff16565b8073ffffffffffffffffffffffffffffffffffffffff167f22380c05984257a1cb900161c713dd71d39e74820f1aea43bd3f1bdd2096129960405160405180910390a250565b600073ffffffffffffffffffffffffffffffffffffffff168173ffffffffffffffffffffffffffffffffffffffff161415620028d4576040517f08c379a000000000000000000000000000000000000000000000000000000000815260040180806020018281038252602681526020018062003c1c6026913960400191505060405180910390fd5b8073ffffffffffffffffffffffffffffffffffffffff16600c60009054906101000a900473ffffffffffffffffffffffffffffffffffffffff1673ffffffffffffffffffffffffffffffffffffffff167f8be0079c531659141344cd1fd0a4f28419497f9722a3daafe3b4186f6b6457e060405160405180910390a380600c60006101000a81548173ffffffffffffffffffffffffffffffffffffffff021916908373ffffffffffffffffffffffffffffffffffffffff16021790555050565b6200299e6200118e565b62002a11576040517f08c379a00000000000000000000000000000000000000000000000000000000081526004018080602001828103825260188152602001807f54696d656443726f776473616c653a206e6f74206f70656e000000000000000081525060200191505060405180910390fd5b62002a1d828262003052565b5050565b60008083141562002a36576000905062002aa6565b600082840290508284828162002a4857fe5b041462002aa1576040517f08c379a000000000000000000000000000000000000000000000000000000000815260040180806020018281038252602181526020018062003c636021913960400191505060405180910390fd5b809150505b92915050565b62002ab662001a7d565b73ffffffffffffffffffffffffffffffffffffffff166340c10f1983836040518363ffffffff1660e01b8152600401808373ffffffffffffffffffffffffffffffffffffffff1673ffffffffffffffffffffffffffffffffffffffff16815260200182815260200192505050602060405180830381600087803b15801562002b3d57600080fd5b505af115801562002b52573d6000803e3d6000fd5b505050506040513d602081101562002b6957600080fd5b810190808051906020019092919050505062002bed576040517f08c379a000000000000000000000000000000000000000000000000000000000815260040180806020018281038252601f8152602001807f4d696e74656443726f776473616c653a206d696e74696e67206661696c65640081525060200191505060405180910390fd5b5050565b600b60009054906101000a900473ffffffffffffffffffffffffffffffffffffffff1673ffffffffffffffffffffffffffffffffffffffff1663f340fa013462002c3a62000e84565b6040518363ffffffff1660e01b8152600401808273ffffffffffffffffffffffffffffffffffffffff1673ffffffffffffffffffffffffffffffffffffffff1681526020019150506000604051808303818588803b15801562002c9c57600080fd5b505af115801562002cb1573d6000803e3d6000fd5b5050505050565b62002cc4828262001e25565b1562002d38576040517f08c379a000000000000000000000000000000000000000000000000000000000815260040180806020018281038252601f8152602001807f526f6c65733a206163636f756e7420616c72656164792068617320726f6c650081525060200191505060405180910390fd5b60018260000160008373ffffffffffffffffffffffffffffffffffffffff1673ffffffffffffffffffffffffffffffffffffffff16815260200190815260200160002060006101000a81548160ff0219169083151502179055505050565b62002da2828262001e25565b62002df9576040517f08c379a000000000000000000000000000000000000000000000000000000000815260040180806020018281038252602181526020018062003c426021913960400191505060405180910390fd5b60008260000160008373ffffffffffffffffffffffffffffffffffffffff1673ffffffffffffffffffffffffffffffffffffffff16815260200190815260200160002060006101000a81548160ff0219169083151502179055505050565b600062002e9b83836040518060400160405280601a81526020017f536166654d6174683a206469766973696f6e206279207a65726f000000000000815250620030f8565b905092915050565b62002ead62001525565b1562002fc157600b60009054906101000a900473ffffffffffffffffffffffffffffffffffffffff1673ffffffffffffffffffffffffffffffffffffffff166343d726d66040518163ffffffff1660e01b8152600401600060405180830381600087803b15801562002f1e57600080fd5b505af115801562002f33573d6000803e3d6000fd5b50505050600b60009054906101000a900473ffffffffffffffffffffffffffffffffffffffff1673ffffffffffffffffffffffffffffffffffffffff16639af6549a6040518163ffffffff1660e01b8152600401600060405180830381600087803b15801562002fa257600080fd5b505af115801562002fb7573d6000803e3d6000fd5b5050505062003046565b600b60009054906101000a900473ffffffffffffffffffffffffffffffffffffffff1673ffffffffffffffffffffffffffffffffffffffff16638c52dc416040518163ffffffff1660e01b8152600401600060405180830381600087803b1580156200302c57600080fd5b505af115801562003041573d6000803e3d6000fd5b505050505b62003050620031c3565b565b6200305e8282620031c5565b6006546200307f82620030706200116c565b62001b3990919063ffffffff16565b1115620030f4576040517f08c379a000000000000000000000000000000000000000000000000000000000815260040180806020018281038252601d8152602001807f43617070656443726f776473616c653a2063617020657863656564656400000081525060200191505060405180910390fd5b5050565b60008083118290620031a8576040517f08c379a00000000000000000000000000000000000000000000000000000000081526004018080602001828103825283818151815260200191508051906020019080838360005b838110156200316c5780820151818401526020810190506200314f565b50505050905090810190601f1680156200319a5780820380516001836020036101000a031916815260200191505b509250505060405180910390fd5b506000838581620031b557fe5b049050809150509392505050565b565b600073ffffffffffffffffffffffffffffffffffffffff168273ffffffffffffffffffffffffffffffffffffffff1614156200324d576040517f08c379a000000000000000000000000000000000000000000000000000000000815260040180806020018281038252602a81526020018062003d2e602a913960400191505060405180910390fd5b6000811415620032c5576040517f08c379a00000000000000000000000000000000000000000000000000000000081526004018080602001828103825260198152602001807f43726f776473616c653a20776569416d6f756e7420697320300000000000000081525060200191505060405180910390fd5b5050565b61090380620032d88339019056fe608060405234801561001057600080fd5b506040516109033803806109038339818101604052606081101561003357600080fd5b810190808051906020019092919080519060200190929190805190602001909291905050504281116100b0576040517f08c379a00000000000000000000000000000000000000000000000000000000081526004018080602001828103825260328152602001806108d16032913960400191505060405180910390fd5b826000806101000a81548173ffffffffffffffffffffffffffffffffffffffff021916908373ffffffffffffffffffffffffffffffffffffffff16021790555081600160006101000a81548173ffffffffffffffffffffffffffffffffffffffff021916908373ffffffffffffffffffffffffffffffffffffffff160217905550806002819055505050506107878061014a6000396000f3fe608060405234801561001057600080fd5b506004361061004c5760003560e01c806338af3eed1461005157806386d1a69f1461009b578063b91d4001146100a5578063fc0c546a146100c3575b600080fd5b61005961010d565b604051808273ffffffffffffffffffffffffffffffffffffffff1673ffffffffffffffffffffffffffffffffffffffff16815260200191505060405180910390f35b6100a3610137565b005b6100ad610339565b6040518082815260200191505060405180910390f35b6100cb610343565b604051808273ffffffffffffffffffffffffffffffffffffffff1673ffffffffffffffffffffffffffffffffffffffff16815260200191505060405180910390f35b6000600160009054906101000a900473ffffffffffffffffffffffffffffffffffffffff16905090565b600254421015610192576040517f08c379a00000000000000000000000000000000000000000000000000000000081526004018080602001828103825260328152602001806106d46032913960400191505060405180910390fd5b60008060009054906101000a900473ffffffffffffffffffffffffffffffffffffffff1673ffffffffffffffffffffffffffffffffffffffff166370a08231306040518263ffffffff1660e01b8152600401808273ffffffffffffffffffffffffffffffffffffffff1673ffffffffffffffffffffffffffffffffffffffff16815260200191505060206040518083038186803b15801561023257600080fd5b505afa158015610246573d6000803e3d6000fd5b505050506040513d602081101561025c57600080fd5b81019080805190602001909291905050509050600081116102c8576040517f08c379a00000000000000000000000000000000000000000000000000000000081526004018080602001828103825260238152602001806107306023913960400191505060405180910390fd5b610336600160009054906101000a900473ffffffffffffffffffffffffffffffffffffffff16826000809054906101000a900473ffffffffffffffffffffffffffffffffffffffff1673ffffffffffffffffffffffffffffffffffffffff1661036c9092919063ffffffff16565b50565b6000600254905090565b60008060009054906101000a900473ffffffffffffffffffffffffffffffffffffffff16905090565b610438838473ffffffffffffffffffffffffffffffffffffffff1663a9059cbb905060e01b8484604051602401808373ffffffffffffffffffffffffffffffffffffffff1673ffffffffffffffffffffffffffffffffffffffff16815260200182815260200192505050604051602081830303815290604052907bffffffffffffffffffffffffffffffffffffffffffffffffffffffff19166020820180517bffffffffffffffffffffffffffffffffffffffffffffffffffffffff838183161783525050505061043d565b505050565b61045c8273ffffffffffffffffffffffffffffffffffffffff16610688565b6104ce576040517f08c379a000000000000000000000000000000000000000000000000000000000815260040180806020018281038252601f8152602001807f5361666545524332303a2063616c6c20746f206e6f6e2d636f6e74726163740081525060200191505060405180910390fd5b600060608373ffffffffffffffffffffffffffffffffffffffff16836040518082805190602001908083835b6020831061051d57805182526020820191506020810190506020830392506104fa565b6001836020036101000a0380198251168184511680821785525050505050509050019150506000604051808303816000865af19150503d806000811461057f576040519150601f19603f3d011682016040523d82523d6000602084013e610584565b606091505b5091509150816105fc576040517f08c379a00000000000000000000000000000000000000000000000000000000081526004018080602001828103825260208152602001807f5361666545524332303a206c6f772d6c6576656c2063616c6c206661696c656481525060200191505060405180910390fd5b6000815111156106825780806020019051602081101561061b57600080fd5b8101908080519060200190929190505050610681576040517f08c379a000000000000000000000000000000000000000000000000000000000815260040180806020018281038252602a815260200180610706602a913960400191505060405180910390fd5b5b50505050565b60008060007fc5d2460186f7233c927e7db2dcc703c0e500b653ca82273b7bfad8045d85a47060001b9050833f91508082141580156106ca57506000801b8214155b9250505091905056fe546f6b656e54696d656c6f636b3a2063757272656e742074696d65206973206265666f72652072656c656173652074696d655361666545524332303a204552433230206f7065726174696f6e20646964206e6f742073756363656564546f6b656e54696d656c6f636b3a206e6f20746f6b656e7320746f2072656c65617365a265627a7a72315820a57eddabbba01dc1a0e1f02223b73017a410eac61324d5b36046108b54c773d564736f6c63430005110032546f6b656e54696d656c6f636b3a2072656c656173652074696d65206973206265666f72652063757272656e742074696d6557686974656c69737443726f776473616c653a2062656e656669636961727920646f65736e27742068617665207468652057686974656c697374656420726f6c654f776e61626c653a206e6577206f776e657220697320746865207a65726f2061646472657373526f6c65733a206163636f756e7420646f6573206e6f74206861766520726f6c65536166654d6174683a206d756c7469706c69636174696f6e206f766572666c6f77526f6c65733a206163636f756e7420697320746865207a65726f206164647265737357686974656c69737441646d696e526f6c653a2063616c6c657220646f6573206e6f742068617665207468652057686974656c69737441646d696e20726f6c6546696e616c697a61626c6543726f776473616c653a20616c72656164792066696e616c697a6564526566756e6461626c6543726f776473616c653a20676f616c207265616368656443726f776473616c653a2062656e656669636961727920697320746865207a65726f2061646472657373526566756e6461626c6543726f776473616c653a206e6f742066696e616c697a6564a265627a7a72315820d68050cbcaaac30f77622c0d9e48086d05a183a78f62bc05a74bb5c16290e03d64736f6c63430005110032608060405234801561001057600080fd5b506040516116323803806116328339818101604052602081101561003357600080fd5b810190808051906020019092919050505060006100546101eb60201b60201c565b9050806000806101000a81548173ffffffffffffffffffffffffffffffffffffffff021916908373ffffffffffffffffffffffffffffffffffffffff1602179055507f4101e71e974f68df5e9730cc223280b41654676bbb052cdcc735c3337e64d2d981604051808273ffffffffffffffffffffffffffffffffffffffff1673ffffffffffffffffffffffffffffffffffffffff16815260200191505060405180910390a150600073ffffffffffffffffffffffffffffffffffffffff168173ffffffffffffffffffffffffffffffffffffffff161415610180576040517f08c379a000000000000000000000000000000000000000000000000000000000815260040180806020018281038252602d815260200180611605602d913960400191505060405180910390fd5b80600260016101000a81548173ffffffffffffffffffffffffffffffffffffffff021916908373ffffffffffffffffffffffffffffffffffffffff1602179055506000600260006101000a81548160ff021916908360028111156101e057fe5b0217905550506101f3565b600033905090565b611403806102026000396000f3fe6080604052600436106100a75760003560e01c80638c52dc41116100645780638c52dc41146102765780639af6549a1461028d578063c19d93fb146102a4578063c6dbdf61146102dd578063e3a9db1a14610334578063f340fa0114610399576100a7565b80632348238c146100ac57806338af3eed146100fd57806343d726d61461015457806351cff8d91461016b5780636809691a146101bc578063685ca1941461020d575b600080fd5b3480156100b857600080fd5b506100fb600480360360208110156100cf57600080fd5b81019080803573ffffffffffffffffffffffffffffffffffffffff1690602001909291905050506103dd565b005b34801561010957600080fd5b506101126105b5565b604051808273ffffffffffffffffffffffffffffffffffffffff1673ffffffffffffffffffffffffffffffffffffffff16815260200191505060405180910390f35b34801561016057600080fd5b506101696105df565b005b34801561017757600080fd5b506101ba6004803603602081101561018e57600080fd5b81019080803573ffffffffffffffffffffffffffffffffffffffff16906020019092919050505061075a565b005b3480156101c857600080fd5b5061020b600480360360208110156101df57600080fd5b81019080803573ffffffffffffffffffffffffffffffffffffffff1690602001909291905050506107c4565b005b34801561021957600080fd5b5061025c6004803603602081101561023057600080fd5b81019080803573ffffffffffffffffffffffffffffffffffffffff169060200190929190505050610974565b604051808215151515815260200191505060405180910390f35b34801561028257600080fd5b5061028b6109a6565b005b34801561029957600080fd5b506102a2610b22565b005b3480156102b057600080fd5b506102b9610c0a565b604051808260028111156102c957fe5b60ff16815260200191505060405180910390f35b3480156102e957600080fd5b506102f2610c21565b604051808273ffffffffffffffffffffffffffffffffffffffff1673ffffffffffffffffffffffffffffffffffffffff16815260200191505060405180910390f35b34801561034057600080fd5b506103836004803603602081101561035757600080fd5b81019080803573ffffffffffffffffffffffffffffffffffffffff169060200190929190505050610c4a565b6040518082815260200191505060405180910390f35b6103db600480360360208110156103af57600080fd5b81019080803573ffffffffffffffffffffffffffffffffffffffff169060200190929190505050610c93565b005b6000809054906101000a900473ffffffffffffffffffffffffffffffffffffffff1673ffffffffffffffffffffffffffffffffffffffff1661041d610d1d565b73ffffffffffffffffffffffffffffffffffffffff1614610489576040517f08c379a000000000000000000000000000000000000000000000000000000000815260040180806020018281038252602c815260200180611371602c913960400191505060405180910390fd5b600073ffffffffffffffffffffffffffffffffffffffff168173ffffffffffffffffffffffffffffffffffffffff16141561050f576040517f08c379a000000000000000000000000000000000000000000000000000000000815260040180806020018281038252602a815260200180611347602a913960400191505060405180910390fd5b806000806101000a81548173ffffffffffffffffffffffffffffffffffffffff021916908373ffffffffffffffffffffffffffffffffffffffff1602179055507f4101e71e974f68df5e9730cc223280b41654676bbb052cdcc735c3337e64d2d981604051808273ffffffffffffffffffffffffffffffffffffffff1673ffffffffffffffffffffffffffffffffffffffff16815260200191505060405180910390a150565b6000600260019054906101000a900473ffffffffffffffffffffffffffffffffffffffff16905090565b6000809054906101000a900473ffffffffffffffffffffffffffffffffffffffff1673ffffffffffffffffffffffffffffffffffffffff1661061f610d1d565b73ffffffffffffffffffffffffffffffffffffffff161461068b576040517f08c379a000000000000000000000000000000000000000000000000000000000815260040180806020018281038252602c815260200180611371602c913960400191505060405180910390fd5b6000600281111561069857fe5b600260009054906101000a900460ff1660028111156106b357fe5b14610709576040517f08c379a000000000000000000000000000000000000000000000000000000000815260040180806020018281038252602981526020018061131e6029913960400191505060405180910390fd5b60028060006101000a81548160ff0219169083600281111561072757fe5b02179055507f088672c3a6e342f7cd94a65ba63b79df24a8973927b4d05d803c44bbf787d12f60405160405180910390a1565b61076381610974565b6107b8576040517f08c379a00000000000000000000000000000000000000000000000000000000081526004018080602001828103825260338152602001806112eb6033913960400191505060405180910390fd5b6107c181610d25565b50565b6000809054906101000a900473ffffffffffffffffffffffffffffffffffffffff1673ffffffffffffffffffffffffffffffffffffffff16610804610d1d565b73ffffffffffffffffffffffffffffffffffffffff1614610870576040517f08c379a000000000000000000000000000000000000000000000000000000000815260040180806020018281038252602c815260200180611371602c913960400191505060405180910390fd5b6000600160008373ffffffffffffffffffffffffffffffffffffffff1673ffffffffffffffffffffffffffffffffffffffff1681526020019081526020016000205490506000600160008473ffffffffffffffffffffffffffffffffffffffff1673ffffffffffffffffffffffffffffffffffffffff16815260200190815260200160002081905550610922818373ffffffffffffffffffffffffffffffffffffffff16610ef390919063ffffffff16565b8173ffffffffffffffffffffffffffffffffffffffff167f7084f5476618d8e60b11ef0d7d3f06914655adb8793e28ff7f018d4c76d505d5826040518082815260200191505060405180910390a25050565b60006001600281111561098357fe5b600260009054906101000a900460ff16600281111561099e57fe5b149050919050565b6000809054906101000a900473ffffffffffffffffffffffffffffffffffffffff1673ffffffffffffffffffffffffffffffffffffffff166109e6610d1d565b73ffffffffffffffffffffffffffffffffffffffff1614610a52576040517f08c379a000000000000000000000000000000000000000000000000000000000815260040180806020018281038252602c815260200180611371602c913960400191505060405180910390fd5b60006002811115610a5f57fe5b600260009054906101000a900460ff166002811115610a7a57fe5b14610ad0576040517f08c379a000000000000000000000000000000000000000000000000000000000815260040180806020018281038252603281526020018061139d6032913960400191505060405180910390fd5b6001600260006101000a81548160ff02191690836002811115610aef57fe5b02179055507f599d8e5a83cffb867d051598c4d70e805d59802d8081c1c7d6dffc5b6aca2b8960405160405180910390a1565b600280811115610b2e57fe5b600260009054906101000a900460ff166002811115610b4957fe5b14610b9f576040517f08c379a000000000000000000000000000000000000000000000000000000000815260040180806020018281038252603881526020018061124e6038913960400191505060405180910390fd5b600260019054906101000a900473ffffffffffffffffffffffffffffffffffffffff1673ffffffffffffffffffffffffffffffffffffffff166108fc479081150290604051600060405180830381858888f19350505050158015610c07573d6000803e3d6000fd5b50565b6000600260009054906101000a900460ff16905090565b60008060009054906101000a900473ffffffffffffffffffffffffffffffffffffffff16905090565b6000600160008373ffffffffffffffffffffffffffffffffffffffff1673ffffffffffffffffffffffffffffffffffffffff168152602001908152602001600020549050919050565b60006002811115610ca057fe5b600260009054906101000a900460ff166002811115610cbb57fe5b14610d11576040517f08c379a000000000000000000000000000000000000000000000000000000000815260040180806020018281038252602b8152602001806112c0602b913960400191505060405180910390fd5b610d1a8161102d565b50565b600033905090565b6000809054906101000a900473ffffffffffffffffffffffffffffffffffffffff1673ffffffffffffffffffffffffffffffffffffffff16610d65610d1d565b73ffffffffffffffffffffffffffffffffffffffff1614610dd1576040517f08c379a000000000000000000000000000000000000000000000000000000000815260040180806020018281038252602c815260200180611371602c913960400191505060405180910390fd5b6000600160008373ffffffffffffffffffffffffffffffffffffffff1673ffffffffffffffffffffffffffffffffffffffff1681526020019081526020016000205490506000600160008473ffffffffffffffffffffffffffffffffffffffff1673ffffffffffffffffffffffffffffffffffffffff168152602001908152602001600020819055508173ffffffffffffffffffffffffffffffffffffffff166108fc829081150290604051600060405180830381858888f19350505050158015610ea0573d6000803e3d6000fd5b508173ffffffffffffffffffffffffffffffffffffffff167f7084f5476618d8e60b11ef0d7d3f06914655adb8793e28ff7f018d4c76d505d5826040518082815260200191505060405180910390a25050565b80471015610f69576040517f08c379a000000000000000000000000000000000000000000000000000000000815260040180806020018281038252601d8152602001807f416464726573733a20696e73756666696369656e742062616c616e636500000081525060200191505060405180910390fd5b60008273ffffffffffffffffffffffffffffffffffffffff168260405180600001905060006040518083038185875af1925050503d8060008114610fc9576040519150601f19603f3d011682016040523d82523d6000602084013e610fce565b606091505b5050905080611028576040517f08c379a000000000000000000000000000000000000000000000000000000000815260040180806020018281038252603a815260200180611286603a913960400191505060405180910390fd5b505050565b6000809054906101000a900473ffffffffffffffffffffffffffffffffffffffff1673ffffffffffffffffffffffffffffffffffffffff1661106d610d1d565b73ffffffffffffffffffffffffffffffffffffffff16146110d9576040517f08c379a000000000000000000000000000000000000000000000000000000000815260040180806020018281038252602c815260200180611371602c913960400191505060405180910390fd5b600034905061113081600160008573ffffffffffffffffffffffffffffffffffffffff1673ffffffffffffffffffffffffffffffffffffffff168152602001908152602001600020546111c590919063ffffffff16565b600160008473ffffffffffffffffffffffffffffffffffffffff1673ffffffffffffffffffffffffffffffffffffffff168152602001908152602001600020819055508173ffffffffffffffffffffffffffffffffffffffff167f2da466a7b24304f47e87fa2e1e5a81b9831ce54fec19055ce277ca2f39ba42c4826040518082815260200191505060405180910390a25050565b600080828401905083811015611243576040517f08c379a000000000000000000000000000000000000000000000000000000000815260040180806020018281038252601b8152602001807f536166654d6174683a206164646974696f6e206f766572666c6f77000000000081525060200191505060405180910390fd5b809150509291505056fe526566756e64457363726f773a2062656e65666963696172792063616e206f6e6c79207769746864726177207768696c6520636c6f736564416464726573733a20756e61626c6520746f2073656e642076616c75652c20726563697069656e74206d61792068617665207265766572746564526566756e64457363726f773a2063616e206f6e6c79206465706f736974207768696c6520616374697665436f6e646974696f6e616c457363726f773a207061796565206973206e6f7420616c6c6f77656420746f207769746864726177526566756e64457363726f773a2063616e206f6e6c7920636c6f7365207768696c65206163746976655365636f6e646172793a206e6577207072696d61727920697320746865207a65726f20616464726573735365636f6e646172793a2063616c6c6572206973206e6f7420746865207072696d617279206163636f756e74526566756e64457363726f773a2063616e206f6e6c7920656e61626c6520726566756e6473207768696c6520616374697665a265627a7a723158202fbc2f694c26a4b10c81651a67b91f433236af10e9a32e3b4534b41ffb5148ae64736f6c63430005110032526566756e64457363726f773a2062656e656669636961727920697320746865207a65726f206164647265737354696d656443726f776473616c653a206f70656e696e672074696d65206973206265666f72652063757272656e742074696d6554696d656443726f776473616c653a206f70656e696e672074696d65206973206e6f74206265666f726520636c6f73696e672074696d6543726f776473616c653a20746f6b656e20697320746865207a65726f2061646472657373526f6c65733a206163636f756e7420697320746865207a65726f206164647265737343726f776473616c653a2077616c6c657420697320746865207a65726f2061646472657373",
  "source": "//SPDX-License-Identifier: UNLICENSED\n\npragma solidity ^0.5.0;\n\nimport \"@openzeppelin/contracts/crowdsale/Crowdsale.sol\";\nimport \"@openzeppelin/contracts/token/ERC20/ERC20Pausable.sol\";\nimport \"@openzeppelin/contracts/token/ERC20/ERC20Mintable.sol\";\nimport \"@openzeppelin/contracts/token/ERC20/ERC20.sol\";\nimport \"@openzeppelin/contracts/crowdsale/emission/MintedCrowdsale.sol\";\nimport \"@openzeppelin/contracts/crowdsale/validation/CappedCrowdsale.sol\";\nimport \"@openzeppelin/contracts/crowdsale/validation/TimedCrowdsale.sol\";\nimport \"@openzeppelin/contracts/crowdsale/validation/WhitelistCrowdsale.sol\";\nimport \"@openzeppelin/contracts/crowdsale/distribution/RefundableCrowdsale.sol\";\nimport \"@openzeppelin/contracts/ownership/Ownable.sol\";\nimport \"@openzeppelin/contracts/payment/escrow/RefundEscrow.sol\";\nimport \"@openzeppelin/contracts/token/ERC20/TokenTimelock.sol\";\n\n// import \"@openzeppelin/contracts/crowdsale/price/IncreasingPriceCrowdsale.sol\";\n\ncontract OprionTokenCrowdsale is\n    Crowdsale,\n    MintedCrowdsale,\n    CappedCrowdsale,\n    TimedCrowdsale,\n    WhitelistCrowdsale,\n    RefundableCrowdsale,\n    Ownable\n{\n    uint256 public investorMinCap = 2000000000000000;\n    uint256 public investorHardCap = 50000000000000000000;\n    mapping(address => uint256) public contributions;\n\n    enum CrowdsaleStage {PreICO, ICO}\n\n    CrowdsaleStage public stage = CrowdsaleStage.PreICO;\n\n    // uint256 initaltokenRate = 0;\n    uint256 preICOtokenRate = 500;\n    uint256 ICOtokenRate = 250;\n\n    uint256 _changeableRate;\n\n    // event DeployerIdentity(address _userAddress);\n\n    uint256 public tokenSalesPercentage = 70;\n    uint256 public foundersPercentage = 10;\n    uint256 public foundationPercentage = 10;\n    uint256 public partnersPercentage = 10;\n\n    address public foundersFund;\n    address public foundationFund;\n    address public partnersFund;\n\n    TokenTimelock public foundersTimelock;\n    TokenTimelock public foundationTimelock;\n    TokenTimelock public partnersTimelock;\n\n    uint256 public releaseTime;\n\n    constructor(\n        uint256 _rate,\n        address payable _wallet,\n        ERC20 _token,\n        uint256 _cap,\n        uint256 _openingTime,\n        uint256 _closingTime,\n        uint256 _goal,\n        address _foundersFund,\n        address _foundationFund,\n        address _partnersFund,\n        uint256 _releaseTime\n    )\n        public\n        //uint256 _goal\n        Crowdsale(_rate, _wallet, _token)\n        CappedCrowdsale(_cap)\n        TimedCrowdsale(_openingTime, _closingTime)\n        RefundableCrowdsale(_goal)\n    {\n        require(_goal <= _cap);\n        _changeableRate = _rate;\n        foundersFund = _foundersFund;\n        foundationFund = _foundationFund;\n        partnersFund = _partnersFund;\n        releaseTime = _releaseTime;\n    }\n\n    /**\n     * @dev returns the amount contributed by a specific user\n     * @param beneficiary Address of the contributor\n     */\n    function getUserContribution(address beneficiary)\n        public\n        view\n        returns (uint256)\n    {\n        return contributions[beneficiary];\n    }\n\n    function viewEscrowFunds() public view returns (RefundEscrow) {\n        return RefundEscrow(wallet());\n    }\n\n    function weiRaisedX() public view returns (uint256) {\n        return weiRaised();\n    }\n\n    /**\n     * @dev Overrides parent method taking into account variable rate.\n     * @param weiAmount The value in wei to be converted into tokens\n     * @return The number of tokens _weiAmount wei will buy at present time\n     */\n    function _getTokenAmount(uint256 weiAmount)\n        internal\n        view\n        returns (uint256)\n    {\n        return weiAmount.mul(_changeableRate);\n    }\n\n    /**\n     * @return the number of token units a buyer gets per wei.\n     */\n    function rate() public view returns (uint256) {\n        return _changeableRate;\n    }\n\n    /**\n     * @dev Allows admin to update crowdsale stages.\n     * @param _stage Address of purchaser.\n     */\n    function setCrowdsaleStage(uint256 _stage) public onlyOwner {\n        if (uint256(CrowdsaleStage.PreICO) == _stage) {\n            stage = CrowdsaleStage.PreICO;\n        } else if (uint256(CrowdsaleStage.ICO) == _stage) {\n            stage = CrowdsaleStage.ICO;\n        }\n\n        if (stage == CrowdsaleStage.PreICO) {\n            _changeableRate = preICOtokenRate;\n        } else if (stage == CrowdsaleStage.ICO) {\n            _changeableRate = ICOtokenRate;\n        }\n    }\n\n    /**\n     * @dev forward funds to wallet during preICO and sending funds to escrow during ICO.\n     */\n    function _forwardFunds() internal {\n        if (stage == CrowdsaleStage.PreICO) {\n            wallet().transfer(msg.value);\n        } else if (stage == CrowdsaleStage.ICO) {\n            super._forwardFunds();\n        }\n    }\n\n    /**\n     * @dev Extended behaviour for changing state of _preValidatePurchase and respecting investor's max/min contributions.\n     * @param _beneficiary Address of purchaser.\n     * @param _weiAmount Amount of wei contributed\n     */\n    function _updatePurchasingState(address _beneficiary, uint256 _weiAmount)\n        internal\n    {\n        super._preValidatePurchase(_beneficiary, _weiAmount);\n        uint256 _existingContribution = contributions[_beneficiary];\n        uint256 _newContribution = _existingContribution.add(_weiAmount);\n        require(\n            _newContribution > investorMinCap &&\n                _newContribution <= investorHardCap\n        );\n        contributions[_beneficiary] = _newContribution;\n    }\n\n    /**\n     * @dev enables token transfer, called when owner calls finalize();\n     */\n    function _finalization() internal {\n        if (goalReached()) {\n            address _tokenAddress = address(token());\n            ERC20Mintable _mintableToken = ERC20Mintable(_tokenAddress);\n            uint256 _alreadyMinted = _mintableToken.totalSupply();\n\n            IERC20 _tokenTT = token();\n\n            uint256 _finalTotalSupply =\n                _alreadyMinted.div(tokenSalesPercentage).mul(100);\n\n            foundersTimelock = new TokenTimelock(\n                _tokenTT,\n                foundersFund,\n                releaseTime\n            );\n            foundationTimelock = new TokenTimelock(\n                _tokenTT,\n                foundationFund,\n                releaseTime\n            );\n            partnersTimelock = new TokenTimelock(\n                _tokenTT,\n                partnersFund,\n                releaseTime\n            );\n\n            _mintableToken.mint(\n                address(foundersTimelock),\n                _finalTotalSupply.div(foundersPercentage)\n            );\n\n            _mintableToken.mint(\n                address(foundationTimelock),\n                _finalTotalSupply.div(foundersPercentage)\n            );\n\n            _mintableToken.mint(\n                address(partnersTimelock),\n                _finalTotalSupply.div(foundersPercentage)\n            );\n\n            _mintableToken.finishMinting();\n\n            ERC20Pausable _pausableToken = ERC20Pausable(_tokenAddress);\n            _pausableToken.unpause();\n            this.transferOwnership(wallet());\n        }\n        super._finalization();\n    }\n}\n",
  "sourcePath": "/Users/manav/Documents/ManavShah/code/truffle/oprionCoin/contracts/OprionTokenCrowdsale.sol",
  "compiler": {
    "name": "solc",
    "version": "0.5.17+commit.d19bba13.Emscripten.clang"
  },
  "schemaVersion": "3.2.3",
  "updatedAt": "2021-06-05T09:17:57.391Z",
  "devdoc": {
    "methods": {
      "buyTokens(address)": {
        "details": "low level token purchase ***DO NOT OVERRIDE*** This function has a non-reentrancy guard, so it shouldn't be called by another `nonReentrant` function.",
        "params": {
          "beneficiary": "Recipient of the token purchase"
        }
      },
      "cap()": {
        "return": "the cap of the crowdsale."
      },
      "capReached()": {
        "details": "Checks whether the cap has been reached.",
        "return": "Whether the cap was reached"
      },
      "claimRefund(address)": {
        "details": "Investors can claim refunds here if crowdsale is unsuccessful.",
        "params": {
          "refundee": "Whose refund will be claimed."
        }
      },
      "closingTime()": {
        "return": "the crowdsale closing time."
      },
      "finalize()": {
        "details": "Must be called after crowdsale ends, to do some extra finalization work. Calls the contract's finalization function."
      },
      "finalized()": {
        "return": "true if the crowdsale is finalized, false otherwise."
      },
      "getUserContribution(address)": {
        "details": "returns the amount contributed by a specific user",
        "params": {
          "beneficiary": "Address of the contributor"
        }
      },
      "goal()": {
        "return": "minimum amount of funds to be raised in wei."
      },
      "goalReached()": {
        "details": "Checks whether funding goal was reached.",
        "return": "Whether funding goal was reached"
      },
      "hasClosed()": {
        "details": "Checks whether the period in which the crowdsale is open has already elapsed.",
        "return": "Whether crowdsale period has elapsed"
      },
      "isOpen()": {
        "return": "true if the crowdsale is open, false otherwise."
      },
      "isOwner()": {
        "details": "Returns true if the caller is the current owner."
      },
      "openingTime()": {
        "return": "the crowdsale opening time."
      },
      "owner()": {
        "details": "Returns the address of the current owner."
      },
      "rate()": {
        "return": "the number of token units a buyer gets per wei."
      },
      "renounceOwnership()": {
        "details": "Leaves the contract without owner. It will not be possible to call `onlyOwner` functions anymore. Can only be called by the current owner.     * NOTE: Renouncing ownership will leave the contract without an owner, thereby removing any functionality that is only available to the owner."
      },
      "setCrowdsaleStage(uint256)": {
        "details": "Allows admin to update crowdsale stages.",
        "params": {
          "_stage": "Address of purchaser."
        }
      },
      "token()": {
        "return": "the token being sold."
      },
      "transferOwnership(address)": {
        "details": "Transfers ownership of the contract to a new account (`newOwner`). Can only be called by the current owner."
      },
      "wallet()": {
        "return": "the address where funds are collected."
      },
      "weiRaised()": {
        "return": "the amount of wei raised."
      }
    }
  },
  "userdoc": {
    "methods": {}
  }
}